{
  "contractName": "Degree",
  "abi": [
    {
      "anonymous": false,
      "inputs": [
        {
          "indexed": true,
          "internalType": "address",
          "name": "previousOwner",
          "type": "address"
        },
        {
          "indexed": true,
          "internalType": "address",
          "name": "newOwner",
          "type": "address"
        }
      ],
      "name": "OwnershipTransferred",
      "type": "event"
    },
    {
      "anonymous": false,
      "inputs": [
        {
          "indexed": false,
          "internalType": "string",
          "name": "hashedDocument",
          "type": "string"
        }
      ],
      "name": "degreeAdded",
      "type": "event"
    },
    {
      "inputs": [
        {
          "internalType": "uint256",
          "name": "",
          "type": "uint256"
        }
      ],
      "name": "hashedDegree",
      "outputs": [
        {
          "internalType": "string",
          "name": "",
          "type": "string"
        }
      ],
      "stateMutability": "view",
      "type": "function",
      "constant": true
    },
    {
      "inputs": [],
      "name": "owner",
      "outputs": [
        {
          "internalType": "address",
          "name": "",
          "type": "address"
        }
      ],
      "stateMutability": "view",
      "type": "function",
      "constant": true
    },
    {
      "inputs": [],
      "name": "renounceOwnership",
      "outputs": [],
      "stateMutability": "nonpayable",
      "type": "function"
    },
    {
      "inputs": [
        {
          "internalType": "address",
          "name": "newOwner",
          "type": "address"
        }
      ],
      "name": "transferOwnership",
      "outputs": [],
      "stateMutability": "nonpayable",
      "type": "function"
    },
    {
      "inputs": [
        {
          "internalType": "string",
          "name": "_hashedDocument",
          "type": "string"
        },
        {
          "internalType": "string",
          "name": "_studentFirstname",
          "type": "string"
        },
        {
          "internalType": "string",
          "name": "_studentLastname",
          "type": "string"
        },
        {
          "internalType": "string",
          "name": "_degreeType",
          "type": "string"
        }
      ],
      "name": "addHashedDegree",
      "outputs": [],
      "stateMutability": "nonpayable",
      "type": "function"
    },
    {
      "inputs": [
        {
          "internalType": "string",
          "name": "targetHash",
          "type": "string"
        }
      ],
      "name": "verifyHashedDegree",
      "outputs": [
        {
          "components": [
            {
              "internalType": "string",
              "name": "studentFirstname",
              "type": "string"
            },
            {
              "internalType": "string",
              "name": "studentLastname",
              "type": "string"
            },
            {
              "internalType": "string",
              "name": "degreeType",
              "type": "string"
            }
          ],
          "internalType": "struct Degree.DegreeInformations",
          "name": "",
          "type": "tuple"
        }
      ],
      "stateMutability": "view",
      "type": "function",
      "constant": true
    }
  ],
  "bytecode": "0x608060405234801561001057600080fd5b5060006100216100c460201b60201c565b9050806000806101000a81548173ffffffffffffffffffffffffffffffffffffffff021916908373ffffffffffffffffffffffffffffffffffffffff1602179055508073ffffffffffffffffffffffffffffffffffffffff16600073ffffffffffffffffffffffffffffffffffffffff167f8be0079c531659141344cd1fd0a4f28419497f9722a3daafe3b4186f6b6457e060405160405180910390a3506100cc565b600033905090565b6111c6806100db6000396000f3fe608060405234801561001057600080fd5b50600436106100625760003560e01c8063222ae52514610067578063715018a6146100975780638da5cb5b146100a1578063d0d8b03d146100bf578063d3f226cd146100ef578063f2fde38b1461010b575b600080fd5b610081600480360381019061007c9190610bf2565b610127565b60405161008e9190610e99565b60405180910390f35b61009f6101d3565b005b6100a961030d565b6040516100b69190610e7e565b60405180910390f35b6100d960048036038101906100d49190610aee565b610336565b6040516100e69190610efb565b60405180910390f35b61010960048036038101906101049190610b2f565b610630565b005b61012560048036038101906101209190610ac5565b6107be565b005b6002818154811061013757600080fd5b90600052602060002001600091509050805461015290611049565b80601f016020809104026020016040519081016040528092919081815260200182805461017e90611049565b80156101cb5780601f106101a0576101008083540402835291602001916101cb565b820191906000526020600020905b8154815290600101906020018083116101ae57829003601f168201915b505050505081565b6101db610967565b73ffffffffffffffffffffffffffffffffffffffff166101f961030d565b73ffffffffffffffffffffffffffffffffffffffff161461024f576040517f08c379a000000000000000000000000000000000000000000000000000000000815260040161024690610edb565b60405180910390fd5b600073ffffffffffffffffffffffffffffffffffffffff1660008054906101000a900473ffffffffffffffffffffffffffffffffffffffff1673ffffffffffffffffffffffffffffffffffffffff167f8be0079c531659141344cd1fd0a4f28419497f9722a3daafe3b4186f6b6457e060405160405180910390a360008060006101000a81548173ffffffffffffffffffffffffffffffffffffffff021916908373ffffffffffffffffffffffffffffffffffffffff160217905550565b60008060009054906101000a900473ffffffffffffffffffffffffffffffffffffffff16905090565b61033e61096f565b60005b6002805490508110156105df578260405160200161035f9190610e50565b60405160208183030381529060405280519060200120600282815481106103af577f4e487b7100000000000000000000000000000000000000000000000000000000600052603260045260246000fd5b906000526020600020016040516020016103c99190610e67565b6040516020818303038152906040528051906020012014156105cc576001836040516103f59190610e50565b908152602001604051809103902060405180606001604052908160008201805461041e90611049565b80601f016020809104026020016040519081016040528092919081815260200182805461044a90611049565b80156104975780601f1061046c57610100808354040283529160200191610497565b820191906000526020600020905b81548152906001019060200180831161047a57829003601f168201915b505050505081526020016001820180546104b090611049565b80601f01602080910402602001604051908101604052809291908181526020018280546104dc90611049565b80156105295780601f106104fe57610100808354040283529160200191610529565b820191906000526020600020905b81548152906001019060200180831161050c57829003601f168201915b5050505050815260200160028201805461054290611049565b80601f016020809104026020016040519081016040528092919081815260200182805461056e90611049565b80156105bb5780601f10610590576101008083540402835291602001916105bb565b820191906000526020600020905b81548152906001019060200180831161059e57829003601f168201915b50505050508152505091505061062b565b80806105d79061107b565b915050610341565b5060405180606001604052806040518060200160405280600081525081526020016040518060200160405280600081525081526020016040518060200160405280600081525081525090505b919050565b610638610967565b73ffffffffffffffffffffffffffffffffffffffff1661065661030d565b73ffffffffffffffffffffffffffffffffffffffff16146106ac576040517f08c379a00000000000000000000000000000000000000000000000000000000081526004016106a390610edb565b60405180910390fd5b60006040518060600160405280858152602001848152602001838152509050806001866040516106dc9190610e50565b90815260200160405180910390206000820151816000019080519060200190610706929190610990565b506020820151816001019080519060200190610723929190610990565b506040820151816002019080519060200190610740929190610990565b5090505060028590806001815401808255809150506001900390600052602060002001600090919091909150908051906020019061077f929190610990565b507f1f15e1eee18556363cce0f778de727d2227632ae0cdc1a8c24494c2a7119b4be856040516107af9190610e99565b60405180910390a15050505050565b6107c6610967565b73ffffffffffffffffffffffffffffffffffffffff166107e461030d565b73ffffffffffffffffffffffffffffffffffffffff161461083a576040517f08c379a000000000000000000000000000000000000000000000000000000000815260040161083190610edb565b60405180910390fd5b600073ffffffffffffffffffffffffffffffffffffffff168173ffffffffffffffffffffffffffffffffffffffff1614156108aa576040517f08c379a00000000000000000000000000000000000000000000000000000000081526004016108a190610ebb565b60405180910390fd5b8073ffffffffffffffffffffffffffffffffffffffff1660008054906101000a900473ffffffffffffffffffffffffffffffffffffffff1673ffffffffffffffffffffffffffffffffffffffff167f8be0079c531659141344cd1fd0a4f28419497f9722a3daafe3b4186f6b6457e060405160405180910390a3806000806101000a81548173ffffffffffffffffffffffffffffffffffffffff021916908373ffffffffffffffffffffffffffffffffffffffff16021790555050565b600033905090565b60405180606001604052806060815260200160608152602001606081525090565b82805461099c90611049565b90600052602060002090601f0160209004810192826109be5760008555610a05565b82601f106109d757805160ff1916838001178555610a05565b82800160010185558215610a05579182015b82811115610a045782518255916020019190600101906109e9565b5b509050610a129190610a16565b5090565b5b80821115610a2f576000816000905550600101610a17565b5090565b6000610a46610a4184610f4e565b610f1d565b905082815260208101848484011115610a5e57600080fd5b610a69848285611007565b509392505050565b600081359050610a8081611162565b92915050565b600082601f830112610a9757600080fd5b8135610aa7848260208601610a33565b91505092915050565b600081359050610abf81611179565b92915050565b600060208284031215610ad757600080fd5b6000610ae584828501610a71565b91505092915050565b600060208284031215610b0057600080fd5b600082013567ffffffffffffffff811115610b1a57600080fd5b610b2684828501610a86565b91505092915050565b60008060008060808587031215610b4557600080fd5b600085013567ffffffffffffffff811115610b5f57600080fd5b610b6b87828801610a86565b945050602085013567ffffffffffffffff811115610b8857600080fd5b610b9487828801610a86565b935050604085013567ffffffffffffffff811115610bb157600080fd5b610bbd87828801610a86565b925050606085013567ffffffffffffffff811115610bda57600080fd5b610be687828801610a86565b91505092959194509250565b600060208284031215610c0457600080fd5b6000610c1284828501610ab0565b91505092915050565b610c2481610fcb565b82525050565b6000610c3582610f93565b610c3f8185610f9e565b9350610c4f818560208601611016565b610c5881611151565b840191505092915050565b6000610c6e82610f93565b610c788185610faf565b9350610c88818560208601611016565b610c9181611151565b840191505092915050565b6000610ca782610f93565b610cb18185610fc0565b9350610cc1818560208601611016565b80840191505092915050565b60008154610cda81611049565b610ce48186610fc0565b94506001821660008114610cff5760018114610d1057610d43565b60ff19831686528186019350610d43565b610d1985610f7e565b60005b83811015610d3b57815481890152600182019150602081019050610d1c565b838801955050505b50505092915050565b6000610d59602683610faf565b91507f4f776e61626c653a206e6577206f776e657220697320746865207a65726f206160008301527f64647265737300000000000000000000000000000000000000000000000000006020830152604082019050919050565b6000610dbf602083610faf565b91507f4f776e61626c653a2063616c6c6572206973206e6f7420746865206f776e65726000830152602082019050919050565b60006060830160008301518482036000860152610e0f8282610c2a565b91505060208301518482036020860152610e298282610c2a565b91505060408301518482036040860152610e438282610c2a565b9150508091505092915050565b6000610e5c8284610c9c565b915081905092915050565b6000610e738284610ccd565b915081905092915050565b6000602082019050610e936000830184610c1b565b92915050565b60006020820190508181036000830152610eb38184610c63565b905092915050565b60006020820190508181036000830152610ed481610d4c565b9050919050565b60006020820190508181036000830152610ef481610db2565b9050919050565b60006020820190508181036000830152610f158184610df2565b905092915050565b6000604051905081810181811067ffffffffffffffff82111715610f4457610f43611122565b5b8060405250919050565b600067ffffffffffffffff821115610f6957610f68611122565b5b601f19601f8301169050602081019050919050565b60008190508160005260206000209050919050565b600081519050919050565b600082825260208201905092915050565b600082825260208201905092915050565b600081905092915050565b6000610fd682610fdd565b9050919050565b600073ffffffffffffffffffffffffffffffffffffffff82169050919050565b6000819050919050565b82818337600083830152505050565b60005b83811015611034578082015181840152602081019050611019565b83811115611043576000848401525b50505050565b6000600282049050600182168061106157607f821691505b60208210811415611075576110746110f3565b5b50919050565b600061108682610ffd565b91507fffffffffffffffffffffffffffffffffffffffffffffffffffffffffffffffff8214156110b9576110b86110c4565b5b600182019050919050565b7f4e487b7100000000000000000000000000000000000000000000000000000000600052601160045260246000fd5b7f4e487b7100000000000000000000000000000000000000000000000000000000600052602260045260246000fd5b7f4e487b7100000000000000000000000000000000000000000000000000000000600052604160045260246000fd5b6000601f19601f8301169050919050565b61116b81610fcb565b811461117657600080fd5b50565b61118281610ffd565b811461118d57600080fd5b5056fea2646970667358221220b61a3f1afc00a43d729d1e4e284ae28b44ed0edacc28cae7ca573e58d99fc01e64736f6c63430008000033",
  "immutableReferences": {},
  "source": "pragma solidity ^0.8.0;\r\n\r\nimport \"./Owner.sol\";\r\n\r\ncontract Degree is Ownable {\r\n    \r\n    event degreeAdded(string hashedDocument);\r\n\r\n    struct DegreeInformations {\r\n        string studentFirstname;\r\n        string studentLastname;\r\n        string degreeType;\r\n    }\r\n\r\n    mapping(string => DegreeInformations) listInformations;\r\n    string[] public hashedDegree;\r\n\r\n    function addHashedDegree(string memory _hashedDocument, string memory _studentFirstname, string memory _studentLastname, string memory _degreeType) public onlyOwner{\r\n        DegreeInformations memory informations = DegreeInformations(_studentFirstname, _studentLastname, _degreeType);\r\n        listInformations[_hashedDocument] = informations;\r\n\r\n        hashedDegree.push(_hashedDocument);\r\n\r\n        emit degreeAdded(_hashedDocument);\r\n    }\r\n\r\n    function verifyHashedDegree(string memory targetHash) public view returns(DegreeInformations memory) {\r\n        for(uint i = 0; i <hashedDegree.length; i++){\r\n            if(keccak256(abi.encodePacked(hashedDegree[i])) == keccak256(abi.encodePacked(targetHash)) ){\r\n                //return true;\r\n                return listInformations[targetHash];\r\n            }\r\n        }  \r\n\r\n        //return false;\r\n        return DegreeInformations( \"\" , \"\" , \"\");\r\n    }\r\n    \r\n}\r\n",
  "sourcePath": "F:/Hackathon-2K21/network/contracts/Degree.sol",
  "compiler": {
    "name": "solc",
    "version": "0.8.0+commit.c7dfd78e.Emscripten.clang"
  },
  "schemaVersion": "3.3.4",
  "updatedAt": "2021-06-11T14:02:15.741Z",
  "networkType": "ethereum",
  "devdoc": {
    "kind": "dev",
    "methods": {
      "owner()": {
        "details": "Returns the address of the current owner."
      },
      "renounceOwnership()": {
        "details": "Leaves the contract without owner. It will not be possible to call `onlyOwner` functions anymore. Can only be called by the current owner. NOTE: Renouncing ownership will leave the contract without an owner, thereby removing any functionality that is only available to the owner."
      },
      "transferOwnership(address)": {
        "details": "Transfers ownership of the contract to a new account (`newOwner`). Can only be called by the current owner."
      }
    },
    "version": 1
  },
  "userdoc": {
    "kind": "user",
    "methods": {},
    "version": 1
  }
}