{
  "contractName": "Degree",
  "abi": [
    {
      "anonymous": false,
      "inputs": [
        {
          "indexed": false,
          "internalType": "string",
          "name": "hashedDocument",
          "type": "string"
        }
      ],
      "name": "degreeAdded",
      "type": "event"
    },
    {
      "inputs": [],
      "name": "Ownable",
      "outputs": [],
      "stateMutability": "nonpayable",
      "type": "function"
    },
    {
      "inputs": [
        {
          "internalType": "uint256",
          "name": "",
          "type": "uint256"
        }
      ],
      "name": "hashedDegree",
      "outputs": [
        {
          "internalType": "string",
          "name": "",
          "type": "string"
        }
      ],
      "stateMutability": "view",
      "type": "function",
      "constant": true
    },
    {
      "inputs": [],
      "name": "owner",
      "outputs": [
        {
          "internalType": "address",
          "name": "",
          "type": "address"
        }
      ],
      "stateMutability": "view",
      "type": "function",
      "constant": true
    },
    {
      "inputs": [
        {
          "internalType": "string",
          "name": "_hashedDocument",
          "type": "string"
        },
        {
          "internalType": "string",
          "name": "_studentFirstname",
          "type": "string"
        },
        {
          "internalType": "string",
          "name": "_studentLastname",
          "type": "string"
        },
        {
          "internalType": "string",
          "name": "_degreeType",
          "type": "string"
        }
      ],
      "name": "addHashedDegree",
      "outputs": [],
      "stateMutability": "nonpayable",
      "type": "function"
    },
    {
      "inputs": [
        {
          "internalType": "string",
          "name": "targetHash",
          "type": "string"
        }
      ],
      "name": "verifyHashedDegree",
      "outputs": [
        {
          "internalType": "string[]",
          "name": "",
          "type": "string[]"
        }
      ],
      "stateMutability": "view",
      "type": "function",
      "constant": true
    },
    {
      "inputs": [
        {
          "internalType": "string",
          "name": "_hashedDocument",
          "type": "string"
        }
      ],
      "name": "viewDegree",
      "outputs": [
        {
          "internalType": "string",
          "name": "",
          "type": "string"
        },
        {
          "internalType": "string",
          "name": "",
          "type": "string"
        },
        {
          "internalType": "string",
          "name": "",
          "type": "string"
        }
      ],
      "stateMutability": "view",
      "type": "function",
      "constant": true
    }
  ],
  "bytecode": "0x608060405234801561001057600080fd5b50610ff2806100206000396000f3fe608060405234801561001057600080fd5b50600436106100625760003560e01c8063222ae5251461006757806385d82b44146100975780638afc3605146100c95780638da5cb5b146100d3578063d0d8b03d146100f1578063d3f226cd14610121575b600080fd5b610081600480360381019061007c9190610a6b565b61013d565b60405161008e9190610cb9565b60405180910390f35b6100b160048036038101906100ac9190610967565b6101e9565b6040516100c093929190610cdb565b60405180910390f35b6100d1610402565b005b6100db610444565b6040516100e89190610c7c565b60405180910390f35b61010b60048036038101906101069190610967565b610468565b6040516101189190610c97565b60405180910390f35b61013b600480360381019061013691906109a8565b6106e0565b005b6002818154811061014d57600080fd5b90600052602060002001600091509050805461016890610e8c565b80601f016020809104026020016040519081016040528092919081815260200182805461019490610e8c565b80156101e15780601f106101b6576101008083540402835291602001916101e1565b820191906000526020600020905b8154815290600101906020018083116101c457829003601f168201915b505050505081565b60608060606001846040516101fe9190610c4e565b908152602001604051809103902060000160018560405161021f9190610c4e565b90815260200160405180910390206001016001866040516102409190610c4e565b908152602001604051809103902060020182805461025d90610e8c565b80601f016020809104026020016040519081016040528092919081815260200182805461028990610e8c565b80156102d65780601f106102ab576101008083540402835291602001916102d6565b820191906000526020600020905b8154815290600101906020018083116102b957829003601f168201915b505050505092508180546102e990610e8c565b80601f016020809104026020016040519081016040528092919081815260200182805461031590610e8c565b80156103625780601f1061033757610100808354040283529160200191610362565b820191906000526020600020905b81548152906001019060200180831161034557829003601f168201915b5050505050915080805461037590610e8c565b80601f01602080910402602001604051908101604052809291908181526020018280546103a190610e8c565b80156103ee5780601f106103c3576101008083540402835291602001916103ee565b820191906000526020600020905b8154815290600101906020018083116103d157829003601f168201915b505050505090509250925092509193909250565b336000806101000a81548173ffffffffffffffffffffffffffffffffffffffff021916908373ffffffffffffffffffffffffffffffffffffffff160217905550565b60008054906101000a900473ffffffffffffffffffffffffffffffffffffffff1681565b606060008260405160200161047d9190610c4e565b60405160208183030381529060405280519060200120905060005b6002805490508110156106045781600282815481106104e0577f4e487b7100000000000000000000000000000000000000000000000000000000600052603260045260246000fd5b906000526020600020016040516020016104fa9190610c65565b6040516020818303038152906040528051906020012014156105f1576002805480602002602001604051908101604052809291908181526020016000905b828210156105e457838290600052602060002001805461055790610e8c565b80601f016020809104026020016040519081016040528092919081815260200182805461058390610e8c565b80156105d05780601f106105a5576101008083540402835291602001916105d0565b820191906000526020600020905b8154815290600101906020018083116105b357829003601f168201915b505050505081526020019060010190610538565b50505050925050506106db565b80806105fc90610ebe565b915050610498565b506002805480602002602001604051908101604052809291908181526020016000905b828210156106d357838290600052602060002001805461064690610e8c565b80601f016020809104026020016040519081016040528092919081815260200182805461067290610e8c565b80156106bf5780601f10610694576101008083540402835291602001916106bf565b820191906000526020600020905b8154815290600101906020018083116106a257829003601f168201915b505050505081526020019060010190610627565b505050509150505b919050565b60008054906101000a900473ffffffffffffffffffffffffffffffffffffffff1673ffffffffffffffffffffffffffffffffffffffff163373ffffffffffffffffffffffffffffffffffffffff1614156108415760006040518060600160405280858152602001848152602001838152509050806001866040516107649190610c4e565b9081526020016040518091039020600082015181600001908051906020019061078e929190610847565b5060208201518160010190805190602001906107ab929190610847565b5060408201518160020190805190602001906107c8929190610847565b50905050600285908060018154018082558091505060019003906000526020600020016000909190919091509080519060200190610807929190610847565b507f1f15e1eee18556363cce0f778de727d2227632ae0cdc1a8c24494c2a7119b4be856040516108379190610cb9565b60405180910390a1505b50505050565b82805461085390610e8c565b90600052602060002090601f01602090048101928261087557600085556108bc565b82601f1061088e57805160ff19168380011785556108bc565b828001600101855582156108bc579182015b828111156108bb5782518255916020019190600101906108a0565b5b5090506108c991906108cd565b5090565b5b808211156108e65760008160009055506001016108ce565b5090565b60006108fd6108f884610d58565b610d27565b90508281526020810184848401111561091557600080fd5b610920848285610e4a565b509392505050565b600082601f83011261093957600080fd5b81356109498482602086016108ea565b91505092915050565b60008135905061096181610fa5565b92915050565b60006020828403121561097957600080fd5b600082013567ffffffffffffffff81111561099357600080fd5b61099f84828501610928565b91505092915050565b600080600080608085870312156109be57600080fd5b600085013567ffffffffffffffff8111156109d857600080fd5b6109e487828801610928565b945050602085013567ffffffffffffffff811115610a0157600080fd5b610a0d87828801610928565b935050604085013567ffffffffffffffff811115610a2a57600080fd5b610a3687828801610928565b925050606085013567ffffffffffffffff811115610a5357600080fd5b610a5f87828801610928565b91505092959194509250565b600060208284031215610a7d57600080fd5b6000610a8b84828501610952565b91505092915050565b6000610aa08383610b2c565b905092915050565b610ab181610e0e565b82525050565b6000610ac282610dad565b610acc8185610dd0565b935083602082028501610ade85610d88565b8060005b85811015610b1a5784840389528151610afb8582610a94565b9450610b0683610dc3565b925060208a01995050600181019050610ae2565b50829750879550505050505092915050565b6000610b3782610db8565b610b418185610de1565b9350610b51818560208601610e59565b610b5a81610f94565b840191505092915050565b6000610b7082610db8565b610b7a8185610df2565b9350610b8a818560208601610e59565b610b9381610f94565b840191505092915050565b6000610ba982610db8565b610bb38185610e03565b9350610bc3818560208601610e59565b80840191505092915050565b60008154610bdc81610e8c565b610be68186610e03565b94506001821660008114610c015760018114610c1257610c45565b60ff19831686528186019350610c45565b610c1b85610d98565b60005b83811015610c3d57815481890152600182019150602081019050610c1e565b838801955050505b50505092915050565b6000610c5a8284610b9e565b915081905092915050565b6000610c718284610bcf565b915081905092915050565b6000602082019050610c916000830184610aa8565b92915050565b60006020820190508181036000830152610cb18184610ab7565b905092915050565b60006020820190508181036000830152610cd38184610b65565b905092915050565b60006060820190508181036000830152610cf58186610b65565b90508181036020830152610d098185610b65565b90508181036040830152610d1d8184610b65565b9050949350505050565b6000604051905081810181811067ffffffffffffffff82111715610d4e57610d4d610f65565b5b8060405250919050565b600067ffffffffffffffff821115610d7357610d72610f65565b5b601f19601f8301169050602081019050919050565b6000819050602082019050919050565b60008190508160005260206000209050919050565b600081519050919050565b600081519050919050565b6000602082019050919050565b600082825260208201905092915050565b600082825260208201905092915050565b600082825260208201905092915050565b600081905092915050565b6000610e1982610e20565b9050919050565b600073ffffffffffffffffffffffffffffffffffffffff82169050919050565b6000819050919050565b82818337600083830152505050565b60005b83811015610e77578082015181840152602081019050610e5c565b83811115610e86576000848401525b50505050565b60006002820490506001821680610ea457607f821691505b60208210811415610eb857610eb7610f36565b5b50919050565b6000610ec982610e40565b91507fffffffffffffffffffffffffffffffffffffffffffffffffffffffffffffffff821415610efc57610efb610f07565b5b600182019050919050565b7f4e487b7100000000000000000000000000000000000000000000000000000000600052601160045260246000fd5b7f4e487b7100000000000000000000000000000000000000000000000000000000600052602260045260246000fd5b7f4e487b7100000000000000000000000000000000000000000000000000000000600052604160045260246000fd5b6000601f19601f8301169050919050565b610fae81610e40565b8114610fb957600080fd5b5056fea264697066735822122037b949298caaf22d77fc093786879c7c304d47d9664dfb4a965ba0cc70552dd964736f6c63430008000033",
  "immutableReferences": {},
  "source": "pragma solidity ^0.8.0;\r\n\r\nimport \"./Owner.sol\";\r\n\r\ncontract Degree is Owner {\r\n    \r\n    event degreeAdded(string hashedDocument);\r\n\r\n    struct DegreeInformations {\r\n        string studentFirstname;\r\n        string studentLastname;\r\n        string degreeType;\r\n    }\r\n\r\n    mapping(string => DegreeInformations) listInformations;\r\n    string[] public hashedDegree;\r\n\r\n    function addHashedDegree(string memory _hashedDocument, string memory _studentFirstname, string memory _studentLastname, string memory _degreeType) public onlyOwner {\r\n        DegreeInformations memory informations = DegreeInformations(_studentFirstname, _studentLastname, _degreeType);\r\n        listInformations[_hashedDocument] = informations;\r\n        hashedDegree.push(_hashedDocument);\r\n        emit degreeAdded(_hashedDocument);\r\n    }\r\n\r\n    function verifyHashedDegree(string memory targetHash) public view returns(string[] memory) {\r\n        bytes32 hashBytes = keccak256(abi.encodePacked(targetHash) );\r\n        for(uint i = 0; i <hashedDegree.length; i++){\r\n            if(keccak256(abi.encodePacked(hashedDegree[i])) == hashBytes ){\r\n                //return true;\r\n                //return listInformations[targetHash];\r\n                return hashedDegree;\r\n            }\r\n        }  \r\n\r\n        //return false;\r\n        //return DegreeInformations(\"fail\", \"fail\", \"fail\");\r\n        return hashedDegree;\r\n    }\r\n    \r\n    function viewDegree(string memory _hashedDocument) public view returns (string memory, string memory, string memory)  {\r\n        return (listInformations[_hashedDocument].studentFirstname, listInformations[_hashedDocument].studentLastname, listInformations[_hashedDocument].degreeType );\r\n    }\r\n    \r\n}\r\n",
  "sourcePath": "F:/Hackathon-2K21/network/contracts/Degree.sol",
  "compiler": {
    "name": "solc",
    "version": "0.8.0+commit.c7dfd78e.Emscripten.clang"
  },
  "schemaVersion": "3.3.4",
  "updatedAt": "2021-06-10T18:23:32.774Z",
  "networkType": "ethereum",
  "devdoc": {
    "kind": "dev",
    "methods": {},
    "version": 1
  },
  "userdoc": {
    "kind": "user",
    "methods": {},
    "version": 1
  }
}