{
  "contractName": "Degree",
  "abi": [
    {
      "anonymous": false,
      "inputs": [
        {
          "indexed": false,
          "internalType": "string",
          "name": "hashedDocument",
          "type": "string"
        }
      ],
      "name": "degreeAdded",
      "type": "event"
    },
    {
      "inputs": [],
      "name": "Ownable",
      "outputs": [],
      "stateMutability": "nonpayable",
      "type": "function"
    },
    {
      "inputs": [
        {
          "internalType": "uint256",
          "name": "",
          "type": "uint256"
        }
      ],
      "name": "hashedDegree",
      "outputs": [
        {
          "internalType": "string",
          "name": "",
          "type": "string"
        }
      ],
      "stateMutability": "view",
      "type": "function",
      "constant": true
    },
    {
      "inputs": [],
      "name": "owner",
      "outputs": [
        {
          "internalType": "address",
          "name": "",
          "type": "address"
        }
      ],
      "stateMutability": "view",
      "type": "function",
      "constant": true
    },
    {
      "inputs": [
        {
          "internalType": "string",
          "name": "_hashedDocument",
          "type": "string"
        },
        {
          "internalType": "string",
          "name": "_studentFirstname",
          "type": "string"
        },
        {
          "internalType": "string",
          "name": "_studentLastname",
          "type": "string"
        },
        {
          "internalType": "string",
          "name": "_degreeType",
          "type": "string"
        }
      ],
      "name": "addHashedDegree",
      "outputs": [],
      "stateMutability": "nonpayable",
      "type": "function"
    },
    {
      "inputs": [
        {
          "internalType": "string",
          "name": "targetHash",
          "type": "string"
        }
      ],
      "name": "verifyHashedDegree",
      "outputs": [
        {
          "internalType": "bool",
          "name": "",
          "type": "bool"
        }
      ],
      "stateMutability": "view",
      "type": "function",
      "constant": true
    },
    {
      "inputs": [
        {
          "internalType": "string",
          "name": "_hashedDocument",
          "type": "string"
        }
      ],
      "name": "viewDegree",
      "outputs": [
        {
          "internalType": "string",
          "name": "",
          "type": "string"
        },
        {
          "internalType": "string",
          "name": "",
          "type": "string"
        },
        {
          "internalType": "string",
          "name": "",
          "type": "string"
        }
      ],
      "stateMutability": "view",
      "type": "function",
      "constant": true
    }
  ],
  "bytecode": "0x608060405234801561001057600080fd5b50610d56806100206000396000f3fe608060405234801561001057600080fd5b50600436106100625760003560e01c8063222ae5251461006757806385d82b44146100975780638afc3605146100c95780638da5cb5b146100d3578063d0d8b03d146100f1578063d3f226cd14610121575b600080fd5b610081600480360381019061007c91906108c7565b61013d565b60405161008e9190610a5b565b60405180910390f35b6100b160048036038101906100ac91906107c3565b6101e9565b6040516100c093929190610a7d565b60405180910390f35b6100d1610402565b005b6100db610444565b6040516100e89190610a25565b60405180910390f35b61010b600480360381019061010691906107c3565b610468565b6040516101189190610a40565b60405180910390f35b61013b60048036038101906101369190610804565b61053c565b005b6002818154811061014d57600080fd5b90600052602060002001600091509050805461016890610bf0565b80601f016020809104026020016040519081016040528092919081815260200182805461019490610bf0565b80156101e15780601f106101b6576101008083540402835291602001916101e1565b820191906000526020600020905b8154815290600101906020018083116101c457829003601f168201915b505050505081565b60608060606001846040516101fe91906109f7565b908152602001604051809103902060000160018560405161021f91906109f7565b908152602001604051809103902060010160018660405161024091906109f7565b908152602001604051809103902060020182805461025d90610bf0565b80601f016020809104026020016040519081016040528092919081815260200182805461028990610bf0565b80156102d65780601f106102ab576101008083540402835291602001916102d6565b820191906000526020600020905b8154815290600101906020018083116102b957829003601f168201915b505050505092508180546102e990610bf0565b80601f016020809104026020016040519081016040528092919081815260200182805461031590610bf0565b80156103625780601f1061033757610100808354040283529160200191610362565b820191906000526020600020905b81548152906001019060200180831161034557829003601f168201915b5050505050915080805461037590610bf0565b80601f01602080910402602001604051908101604052809291908181526020018280546103a190610bf0565b80156103ee5780601f106103c3576101008083540402835291602001916103ee565b820191906000526020600020905b8154815290600101906020018083116103d157829003601f168201915b505050505090509250925092509193909250565b336000806101000a81548173ffffffffffffffffffffffffffffffffffffffff021916908373ffffffffffffffffffffffffffffffffffffffff160217905550565b60008054906101000a900473ffffffffffffffffffffffffffffffffffffffff1681565b600080600090505b600280549050811015610531578260405160200161048e91906109f7565b60405160208183030381529060405280519060200120600282815481106104de577f4e487b7100000000000000000000000000000000000000000000000000000000600052603260045260246000fd5b906000526020600020016040516020016104f89190610a0e565b60405160208183030381529060405280519060200120141561051e576001915050610537565b808061052990610c22565b915050610470565b50600090505b919050565b60008054906101000a900473ffffffffffffffffffffffffffffffffffffffff1673ffffffffffffffffffffffffffffffffffffffff163373ffffffffffffffffffffffffffffffffffffffff16141561069d5760006040518060600160405280858152602001848152602001838152509050806001866040516105c091906109f7565b908152602001604051809103902060008201518160000190805190602001906105ea9291906106a3565b5060208201518160010190805190602001906106079291906106a3565b5060408201518160020190805190602001906106249291906106a3565b509050506002859080600181540180825580915050600190039060005260206000200160009091909190915090805190602001906106639291906106a3565b507f1f15e1eee18556363cce0f778de727d2227632ae0cdc1a8c24494c2a7119b4be856040516106939190610a5b565b60405180910390a1505b50505050565b8280546106af90610bf0565b90600052602060002090601f0160209004810192826106d15760008555610718565b82601f106106ea57805160ff1916838001178555610718565b82800160010185558215610718579182015b828111156107175782518255916020019190600101906106fc565b5b5090506107259190610729565b5090565b5b8082111561074257600081600090555060010161072a565b5090565b600061075961075484610afa565b610ac9565b90508281526020810184848401111561077157600080fd5b61077c848285610bae565b509392505050565b600082601f83011261079557600080fd5b81356107a5848260208601610746565b91505092915050565b6000813590506107bd81610d09565b92915050565b6000602082840312156107d557600080fd5b600082013567ffffffffffffffff8111156107ef57600080fd5b6107fb84828501610784565b91505092915050565b6000806000806080858703121561081a57600080fd5b600085013567ffffffffffffffff81111561083457600080fd5b61084087828801610784565b945050602085013567ffffffffffffffff81111561085d57600080fd5b61086987828801610784565b935050604085013567ffffffffffffffff81111561088657600080fd5b61089287828801610784565b925050606085013567ffffffffffffffff8111156108af57600080fd5b6108bb87828801610784565b91505092959194509250565b6000602082840312156108d957600080fd5b60006108e7848285016107ae565b91505092915050565b6108f981610b66565b82525050565b61090881610b78565b82525050565b600061091982610b3f565b6109238185610b4a565b9350610933818560208601610bbd565b61093c81610cf8565b840191505092915050565b600061095282610b3f565b61095c8185610b5b565b935061096c818560208601610bbd565b80840191505092915050565b6000815461098581610bf0565b61098f8186610b5b565b945060018216600081146109aa57600181146109bb576109ee565b60ff198316865281860193506109ee565b6109c485610b2a565b60005b838110156109e6578154818901526001820191506020810190506109c7565b838801955050505b50505092915050565b6000610a038284610947565b915081905092915050565b6000610a1a8284610978565b915081905092915050565b6000602082019050610a3a60008301846108f0565b92915050565b6000602082019050610a5560008301846108ff565b92915050565b60006020820190508181036000830152610a75818461090e565b905092915050565b60006060820190508181036000830152610a97818661090e565b90508181036020830152610aab818561090e565b90508181036040830152610abf818461090e565b9050949350505050565b6000604051905081810181811067ffffffffffffffff82111715610af057610aef610cc9565b5b8060405250919050565b600067ffffffffffffffff821115610b1557610b14610cc9565b5b601f19601f8301169050602081019050919050565b60008190508160005260206000209050919050565b600081519050919050565b600082825260208201905092915050565b600081905092915050565b6000610b7182610b84565b9050919050565b60008115159050919050565b600073ffffffffffffffffffffffffffffffffffffffff82169050919050565b6000819050919050565b82818337600083830152505050565b60005b83811015610bdb578082015181840152602081019050610bc0565b83811115610bea576000848401525b50505050565b60006002820490506001821680610c0857607f821691505b60208210811415610c1c57610c1b610c9a565b5b50919050565b6000610c2d82610ba4565b91507fffffffffffffffffffffffffffffffffffffffffffffffffffffffffffffffff821415610c6057610c5f610c6b565b5b600182019050919050565b7f4e487b7100000000000000000000000000000000000000000000000000000000600052601160045260246000fd5b7f4e487b7100000000000000000000000000000000000000000000000000000000600052602260045260246000fd5b7f4e487b7100000000000000000000000000000000000000000000000000000000600052604160045260246000fd5b6000601f19601f8301169050919050565b610d1281610ba4565b8114610d1d57600080fd5b5056fea264697066735822122089527b78bbebee59cf98ce1e18f02ecfe63be06f31a1add25931acdd249a323a64736f6c63430008000033",
  "immutableReferences": {},
  "source": "pragma solidity ^0.8.0;\r\n\r\nimport \"./Owner.sol\";\r\n\r\ncontract Degree is Owner {\r\n    \r\n    event degreeAdded(string hashedDocument);\r\n\r\n    struct DegreeInformations {\r\n        string studentFirstname;\r\n        string studentLastname;\r\n        string degreeType;\r\n    }\r\n\r\n    mapping(string => DegreeInformations) listInformations;\r\n    string[] public hashedDegree;\r\n\r\n    function addHashedDegree(string memory _hashedDocument, string memory _studentFirstname, string memory _studentLastname, string memory _degreeType) public onlyOwner {\r\n        DegreeInformations memory informations = DegreeInformations(_studentFirstname, _studentLastname, _degreeType);\r\n        listInformations[_hashedDocument] = informations;\r\n        hashedDegree.push(_hashedDocument);\r\n        emit degreeAdded(_hashedDocument);\r\n    }\r\n\r\n    function verifyHashedDegree(string memory targetHash) public view returns(bool) {\r\n        for(uint i = 0; i <hashedDegree.length; i++){\r\n            if(keccak256(abi.encodePacked(hashedDegree[i])) == keccak256(abi.encodePacked(targetHash))){\r\n                return true;\r\n                //return listInformations[targetHash];\r\n            }\r\n        }  \r\n\r\n        return false;\r\n        //return DegreeInformations(\"\", \"\", \"\");\r\n    }\r\n    \r\n    function viewDegree(string memory _hashedDocument) public view returns (string memory, string memory, string memory)  {\r\n        return (listInformations[_hashedDocument].studentFirstname, listInformations[_hashedDocument].studentLastname, listInformations[_hashedDocument].degreeType );\r\n    }\r\n    \r\n}\r\n",
  "sourcePath": "F:/Hackathon-2K21/network/contracts/Degree.sol",
  "compiler": {
    "name": "solc",
    "version": "0.8.0+commit.c7dfd78e.Emscripten.clang"
  },
  "schemaVersion": "3.3.4",
  "updatedAt": "2021-06-11T09:36:50.981Z",
  "networkType": "ethereum",
  "devdoc": {
    "kind": "dev",
    "methods": {},
    "version": 1
  },
  "userdoc": {
    "kind": "user",
    "methods": {},
    "version": 1
  }
}